{
  "contractName": "Delivery",
  "abi": [
    {
      "constant": true,
      "inputs": [],
      "name": "orderState",
      "outputs": [
        {
          "name": "",
          "type": "uint8"
        }
      ],
      "payable": false,
      "stateMutability": "view",
      "type": "function"
    },
    {
      "inputs": [],
      "payable": false,
      "stateMutability": "nonpayable",
      "type": "constructor"
    },
    {
      "anonymous": false,
      "inputs": [
        {
          "indexed": false,
          "name": "message",
          "type": "string"
        }
      ],
      "name": "notify",
      "type": "event"
    },
    {
      "anonymous": false,
      "inputs": [
        {
          "indexed": false,
          "name": "status",
          "type": "bool"
        }
      ],
      "name": "cancelOrder",
      "type": "event"
    },
    {
      "anonymous": false,
      "inputs": [
        {
          "indexed": false,
          "name": "endOrder",
          "type": "bool"
        }
      ],
      "name": "endOrder",
      "type": "event"
    },
    {
      "constant": false,
      "inputs": [
        {
          "name": "_order",
          "type": "string"
        },
        {
          "name": "_cost",
          "type": "uint256"
        }
      ],
      "name": "placeOrder",
      "outputs": [],
      "payable": false,
      "stateMutability": "nonpayable",
      "type": "function"
    },
    {
      "constant": false,
      "inputs": [],
      "name": "notifyUser",
      "outputs": [],
      "payable": false,
      "stateMutability": "nonpayable",
      "type": "function"
    },
    {
      "constant": false,
      "inputs": [],
      "name": "confirmOrder",
      "outputs": [],
      "payable": true,
      "stateMutability": "payable",
      "type": "function"
    },
    {
      "constant": false,
      "inputs": [],
      "name": "cancel",
      "outputs": [],
      "payable": false,
      "stateMutability": "nonpayable",
      "type": "function"
    },
    {
      "constant": false,
      "inputs": [],
      "name": "withdraw",
      "outputs": [],
      "payable": false,
      "stateMutability": "nonpayable",
      "type": "function"
    }
  ],
  "bytecode": "0x608060405234801561001057600080fd5b5033600060016101000a81548173ffffffffffffffffffffffffffffffffffffffff021916908373ffffffffffffffffffffffffffffffffffffffff160217905550610556806100616000396000f300608060405260043610610078576000357c0100000000000000000000000000000000000000000000000000000000900463ffffffff1680633ccfd60b1461007d5780639b446e2014610094578063a00f198a146100ab578063a1b6e836146100b5578063cc08652f14610128578063ea8a1af014610161575b600080fd5b34801561008957600080fd5b50610092610178565b005b3480156100a057600080fd5b506100a961025a565b005b6100b36102ea565b005b3480156100c157600080fd5b50610126600480360381019080803590602001908201803590602001908080601f016020809104026020016040519081016040528093929190818152602001838380828437820191505050505050919291929080359060200190929190505050610338565b005b34801561013457600080fd5b5061013d61037d565b6040518082600281111561014d57fe5b60ff16815260200191505060405180910390f35b34801561016d57600080fd5b5061017661038f565b005b6000600160009054906101000a900473ffffffffffffffffffffffffffffffffffffffff1673ffffffffffffffffffffffffffffffffffffffff163373ffffffffffffffffffffffffffffffffffffffff161415156101d657600080fd5b3073ffffffffffffffffffffffffffffffffffffffff16319050670de0b6b3a76400008111151561020657600080fd5b3373ffffffffffffffffffffffffffffffffffffffff166108fc670de0b6b3a764000083039081150290604051600060405180830381858888f19350505050158015610256573d6000803e3d6000fd5b5050565b7fa396f8d98c67c164560cb969bf42c7fd20318f6a13d8a83e7a589a61fb1214b660405180806020018281038252602d8152602001807f466f6f6420686173206265656e2070726570617265642e2044656c697665727981526020017f206861732073746172746564210000000000000000000000000000000000000081525060400191505060405180910390a1565b600254341415156102fa57600080fd5b7f85bede9cdf8cc65b421676878d38dd5dac43259a5c770bccffb49641299af45f6001604051808215151515815260200191505060405180910390a1565b816003908051906020019061034e929190610485565b508060028190555060008060006101000a81548160ff0219169083600281111561037457fe5b02179055505050565b6000809054906101000a900460ff1681565b3373ffffffffffffffffffffffffffffffffffffffff166108fc6002549081150290604051600060405180830381858888f193505050501580156103d7573d6000803e3d6000fd5b50600060028111156103e557fe5b6000809054906101000a900460ff1660028111156103ff57fe5b1415610446577fa5c672428a186557e1731eed653482f76ac698f225dfdd27f04a5ef06762abf56001604051808215151515815260200191505060405180910390a1610483565b7fa5c672428a186557e1731eed653482f76ac698f225dfdd27f04a5ef06762abf56000604051808215151515815260200191505060405180910390a15b565b828054600181600116156101000203166002900490600052602060002090601f016020900481019282601f106104c657805160ff19168380011785556104f4565b828001600101855582156104f4579182015b828111156104f35782518255916020019190600101906104d8565b5b5090506105019190610505565b5090565b61052791905b8082111561052357600081600090555060010161050b565b5090565b905600a165627a7a723058204d2e1bfb9dfe741f8f71a2b8a5dd154df707bafef3846fb776b70cdafcd766fd0029",
  "source": "pragma solidity ^0.4.4;\n\n\ncontract Delivery {\n    // Declaring State of the Order\n    enum State { Cooking, Delivering, Delivered }\n    State public orderState;\n    \n    // Declaring User Address, Restaurant Address, cost of order and name of order\n    address useraddress;\n    address restaurantaddress;\n    uint cost;\n    string order;\n    \n    // Notify event in order to send event to UI to notify the user\n    event notify(string message);\n    \n    // Cancellation event in order to cancel pending cooking orderState\n    event cancelOrder(bool status);\n    \n    // An event to end orders\n    event endOrder(bool endOrder);\n    \n    // Constructor by default sets useraddress to transaction sender\n    constructor() public {\n        useraddress = msg.sender;\n    }\n    \n    // A modifier to allow withdrawal from smart contract\n    modifier onlyRestaurant() {\n        require(msg.sender == restaurantaddress);\n        _;\n    }\n    \n    // Customer places order via this function\n    function placeOrder(string _order, uint _cost) public {\n        order = _order;\n        cost = _cost;\n        orderState = State.Cooking;\n    }\n    \n    // Emit a notification to alert user that the food has been prepared\n    function notifyUser() public {\n        emit notify(\"Food has been prepared. Delivery has started!\");\n    }\n    \n    // Emit an endOrder function in order to end the contract, once paid the corret amount\n    function confirmOrder() public payable{\n        require(msg.value == cost);\n        emit endOrder(true);\n    }\n    \n    // Cancel Order\n    function cancel() public {\n        msg.sender.transfer(cost);\n        if (orderState == State.Cooking) {\n            emit cancelOrder(true);\n        } else {\n            emit cancelOrder(false);\n        }\n    }\n    \n    // Withdraw funds from the smart contract to the restuarant's ethereum address\n    function withdraw() external onlyRestaurant {\n        uint256 balance = address(this).balance;\n        require (balance > 1 ether);\n        msg.sender.transfer(balance - 1 ether);\n    }\n}\n",
  "sourcePath": "/Users/lancetugade/BlockFellows/Challenge-1/contracts/Delivery.sol",
  "compiler": {
    "name": "solc",
    "version": "0.4.24+commit.e67f0147.Emscripten.clang"
  },
  "schemaVersion": "2.0.0",
  "updatedAt": "2018-07-06T07:34:12.145Z"
}